{
  "_format": "hh-sol-artifact-1",
  "contractName": "Lottery",
  "sourceName": "contracts/Lottery.sol",
  "abi": [
    {
      "inputs": [
        {
          "internalType": "uint256",
          "name": "_ticketPrice",
          "type": "uint256"
        },
        {
          "internalType": "address",
          "name": "_playerStats",
          "type": "address"
        }
      ],
      "stateMutability": "nonpayable",
      "type": "constructor"
    },
    {
      "inputs": [],
      "name": "enter",
      "outputs": [],
      "stateMutability": "payable",
      "type": "function"
    },
    {
      "inputs": [],
      "name": "getPlayers",
      "outputs": [
        {
          "internalType": "address[]",
          "name": "",
          "type": "address[]"
        }
      ],
      "stateMutability": "view",
      "type": "function"
    },
    {
      "inputs": [],
      "name": "owner",
      "outputs": [
        {
          "internalType": "address",
          "name": "",
          "type": "address"
        }
      ],
      "stateMutability": "view",
      "type": "function"
    },
    {
      "inputs": [],
      "name": "pickWinner",
      "outputs": [],
      "stateMutability": "nonpayable",
      "type": "function"
    },
    {
      "inputs": [],
      "name": "playerStats",
      "outputs": [
        {
          "internalType": "contract IPlayerStats",
          "name": "",
          "type": "address"
        }
      ],
      "stateMutability": "view",
      "type": "function"
    },
    {
      "inputs": [
        {
          "internalType": "uint256",
          "name": "",
          "type": "uint256"
        }
      ],
      "name": "players",
      "outputs": [
        {
          "internalType": "address",
          "name": "",
          "type": "address"
        }
      ],
      "stateMutability": "view",
      "type": "function"
    },
    {
      "inputs": [],
      "name": "ticketPrice",
      "outputs": [
        {
          "internalType": "uint256",
          "name": "",
          "type": "uint256"
        }
      ],
      "stateMutability": "view",
      "type": "function"
    }
  ],
  "bytecode": "0x60806040523480156200001157600080fd5b5060405162000dfd38038062000dfd83398181016040528101906200003791906200016c565b336000806101000a81548173ffffffffffffffffffffffffffffffffffffffff021916908373ffffffffffffffffffffffffffffffffffffffff1602179055508160018190555080600360006101000a81548173ffffffffffffffffffffffffffffffffffffffff021916908373ffffffffffffffffffffffffffffffffffffffff1602179055505050620001b3565b600080fd5b6000819050919050565b620000e181620000cc565b8114620000ed57600080fd5b50565b6000815190506200010181620000d6565b92915050565b600073ffffffffffffffffffffffffffffffffffffffff82169050919050565b6000620001348262000107565b9050919050565b620001468162000127565b81146200015257600080fd5b50565b60008151905062000166816200013b565b92915050565b60008060408385031215620001865762000185620000c7565b5b60006200019685828601620000f0565b9250506020620001a98582860162000155565b9150509250929050565b610c3a80620001c36000396000f3fe6080604052600436106100705760003560e01c80638b5b9ccc1161004e5780638b5b9ccc146100e25780638da5cb5b1461010d578063e97dcb6214610138578063f71d96cb1461014257610070565b80630ee42686146100755780631209b1f6146100a05780635d495aea146100cb575b600080fd5b34801561008157600080fd5b5061008a61017f565b6040516100979190610747565b60405180910390f35b3480156100ac57600080fd5b506100b56101a5565b6040516100c2919061077b565b60405180910390f35b3480156100d757600080fd5b506100e06101ab565b005b3480156100ee57600080fd5b506100f7610463565b6040516101049190610866565b60405180910390f35b34801561011957600080fd5b506101226104f1565b60405161012f9190610897565b60405180910390f35b610140610515565b005b34801561014e57600080fd5b50610169600480360381019061016491906108e3565b61064b565b6040516101769190610897565b60405180910390f35b600360009054906101000a900473ffffffffffffffffffffffffffffffffffffffff1681565b60015481565b60008054906101000a900473ffffffffffffffffffffffffffffffffffffffff1673ffffffffffffffffffffffffffffffffffffffff163373ffffffffffffffffffffffffffffffffffffffff1614610239576040517f08c379a00000000000000000000000000000000000000000000000000000000081526004016102309061096d565b60405180910390fd5b600060028054905011610281576040517f08c379a0000000000000000000000000000000000000000000000000000000008152600401610278906109d9565b60405180910390fd5b6000424460028054905060405160200161029d93929190610a1a565b6040516020818303038152906040528051906020012060001c90506000600280549050826102cb9190610a86565b90506000600282815481106102e3576102e2610ab7565b5b9060005260206000200160009054906101000a900473ffffffffffffffffffffffffffffffffffffffff169050600047905060008273ffffffffffffffffffffffffffffffffffffffff168260405161033b90610b17565b60006040518083038185875af1925050503d8060008114610378576040519150601f19603f3d011682016040523d82523d6000602084013e61037d565b606091505b50509050806103c1576040517f08c379a00000000000000000000000000000000000000000000000000000000081526004016103b890610b78565b60405180910390fd5b600360009054906101000a900473ffffffffffffffffffffffffffffffffffffffff1673ffffffffffffffffffffffffffffffffffffffff1663739b47ca846040518263ffffffff1660e01b815260040161041c9190610897565b600060405180830381600087803b15801561043657600080fd5b505af115801561044a573d6000803e3d6000fd5b505050506002600061045c919061068a565b5050505050565b606060028054806020026020016040519081016040528092919081815260200182805480156104e757602002820191906000526020600020905b8160009054906101000a900473ffffffffffffffffffffffffffffffffffffffff1673ffffffffffffffffffffffffffffffffffffffff168152602001906001019080831161049d575b5050505050905090565b60008054906101000a900473ffffffffffffffffffffffffffffffffffffffff1681565b6001543414610559576040517f08c379a000000000000000000000000000000000000000000000000000000000815260040161055090610be4565b60405180910390fd5b6002339080600181540180825580915050600190039060005260206000200160009091909190916101000a81548173ffffffffffffffffffffffffffffffffffffffff021916908373ffffffffffffffffffffffffffffffffffffffff160217905550600360009054906101000a900473ffffffffffffffffffffffffffffffffffffffff1673ffffffffffffffffffffffffffffffffffffffff166380365f4d336040518263ffffffff1660e01b81526004016106179190610897565b600060405180830381600087803b15801561063157600080fd5b505af1158015610645573d6000803e3d6000fd5b50505050565b6002818154811061065b57600080fd5b906000526020600020016000915054906101000a900473ffffffffffffffffffffffffffffffffffffffff1681565b50805460008255906000526020600020908101906106a891906106ab565b50565b5b808211156106c45760008160009055506001016106ac565b5090565b600073ffffffffffffffffffffffffffffffffffffffff82169050919050565b6000819050919050565b600061070d610708610703846106c8565b6106e8565b6106c8565b9050919050565b600061071f826106f2565b9050919050565b600061073182610714565b9050919050565b61074181610726565b82525050565b600060208201905061075c6000830184610738565b92915050565b6000819050919050565b61077581610762565b82525050565b6000602082019050610790600083018461076c565b92915050565b600081519050919050565b600082825260208201905092915050565b6000819050602082019050919050565b60006107cd826106c8565b9050919050565b6107dd816107c2565b82525050565b60006107ef83836107d4565b60208301905092915050565b6000602082019050919050565b600061081382610796565b61081d81856107a1565b9350610828836107b2565b8060005b8381101561085957815161084088826107e3565b975061084b836107fb565b92505060018101905061082c565b5085935050505092915050565b600060208201905081810360008301526108808184610808565b905092915050565b610891816107c2565b82525050565b60006020820190506108ac6000830184610888565b92915050565b600080fd5b6108c081610762565b81146108cb57600080fd5b50565b6000813590506108dd816108b7565b92915050565b6000602082840312156108f9576108f86108b2565b5b6000610907848285016108ce565b91505092915050565b600082825260208201905092915050565b7f4f6e6c79206f776e657200000000000000000000000000000000000000000000600082015250565b6000610957600a83610910565b915061096282610921565b602082019050919050565b600060208201905081810360008301526109868161094a565b9050919050565b7f4e6f20706c617965727300000000000000000000000000000000000000000000600082015250565b60006109c3600a83610910565b91506109ce8261098d565b602082019050919050565b600060208201905081810360008301526109f2816109b6565b9050919050565b6000819050919050565b610a14610a0f82610762565b6109f9565b82525050565b6000610a268286610a03565b602082019150610a368285610a03565b602082019150610a468284610a03565b602082019150819050949350505050565b7f4e487b7100000000000000000000000000000000000000000000000000000000600052601260045260246000fd5b6000610a9182610762565b9150610a9c83610762565b925082610aac57610aab610a57565b5b828206905092915050565b7f4e487b7100000000000000000000000000000000000000000000000000000000600052603260045260246000fd5b600081905092915050565b50565b6000610b01600083610ae6565b9150610b0c82610af1565b600082019050919050565b6000610b2282610af4565b9150819050919050565b7f5472616e73666572206661696c65640000000000000000000000000000000000600082015250565b6000610b62600f83610910565b9150610b6d82610b2c565b602082019050919050565b60006020820190508181036000830152610b9181610b55565b9050919050565b7f57726f6e67207469636b65742070726963650000000000000000000000000000600082015250565b6000610bce601283610910565b9150610bd982610b98565b602082019050919050565b60006020820190508181036000830152610bfd81610bc1565b905091905056fea2646970667358221220aa66a684180ab531a99094e9271f83a630426af24820b16217d091c1656d057564736f6c63430008140033",
  "linkReferences": {},
  "deployedLinkReferences": {}
}