{
  "_format": "hh-sol-artifact-1",
  "contractName": "PlayerStats",
  "sourceName": "contracts/PlayerStats.sol",
  "abi": [
    {
      "inputs": [
        {
          "internalType": "address",
          "name": "player",
          "type": "address"
        }
      ],
      "name": "getPlayerStats",
      "outputs": [
        {
          "internalType": "uint256",
          "name": "tickets",
          "type": "uint256"
        },
        {
          "internalType": "uint256",
          "name": "totalWins",
          "type": "uint256"
        }
      ],
      "stateMutability": "view",
      "type": "function"
    },
    {
      "inputs": [
        {
          "internalType": "address",
          "name": "player",
          "type": "address"
        }
      ],
      "name": "recordTicket",
      "outputs": [],
      "stateMutability": "nonpayable",
      "type": "function"
    },
    {
      "inputs": [
        {
          "internalType": "address",
          "name": "winner",
          "type": "address"
        }
      ],
      "name": "recordWin",
      "outputs": [],
      "stateMutability": "nonpayable",
      "type": "function"
    },
    {
      "inputs": [
        {
          "internalType": "address",
          "name": "",
          "type": "address"
        }
      ],
      "name": "ticketsBought",
      "outputs": [
        {
          "internalType": "uint256",
          "name": "",
          "type": "uint256"
        }
      ],
      "stateMutability": "view",
      "type": "function"
    },
    {
      "inputs": [
        {
          "internalType": "address",
          "name": "",
          "type": "address"
        }
      ],
      "name": "wins",
      "outputs": [
        {
          "internalType": "uint256",
          "name": "",
          "type": "uint256"
        }
      ],
      "stateMutability": "view",
      "type": "function"
    }
  ],
  "bytecode": "0x608060405234801561001057600080fd5b50610429806100206000396000f3fe608060405234801561001057600080fd5b50600436106100575760003560e01c80634fd66eae1461005c578063739b47ca1461008d57806380365f4d146100a95780638047a97a146100c557806384bd3264146100f5575b600080fd5b610076600480360381019061007191906102f2565b610125565b604051610084929190610338565b60405180910390f35b6100a760048036038101906100a291906102f2565b6101b0565b005b6100c360048036038101906100be91906102f2565b610208565b005b6100df60048036038101906100da91906102f2565b61025f565b6040516100ec9190610361565b60405180910390f35b61010f600480360381019061010a91906102f2565b610277565b60405161011c9190610361565b60405180910390f35b6000806000808473ffffffffffffffffffffffffffffffffffffffff1673ffffffffffffffffffffffffffffffffffffffff168152602001908152602001600020549150600160008473ffffffffffffffffffffffffffffffffffffffff1673ffffffffffffffffffffffffffffffffffffffff168152602001908152602001600020549050915091565b600160008273ffffffffffffffffffffffffffffffffffffffff1673ffffffffffffffffffffffffffffffffffffffff1681526020019081526020016000206000815480929190610200906103ab565b919050555050565b6000808273ffffffffffffffffffffffffffffffffffffffff1673ffffffffffffffffffffffffffffffffffffffff1681526020019081526020016000206000815480929190610257906103ab565b919050555050565b60016020528060005260406000206000915090505481565b60006020528060005260406000206000915090505481565b600080fd5b600073ffffffffffffffffffffffffffffffffffffffff82169050919050565b60006102bf82610294565b9050919050565b6102cf816102b4565b81146102da57600080fd5b50565b6000813590506102ec816102c6565b92915050565b6000602082840312156103085761030761028f565b5b6000610316848285016102dd565b91505092915050565b6000819050919050565b6103328161031f565b82525050565b600060408201905061034d6000830185610329565b61035a6020830184610329565b9392505050565b60006020820190506103766000830184610329565b92915050565b7f4e487b7100000000000000000000000000000000000000000000000000000000600052601160045260246000fd5b60006103b68261031f565b91507fffffffffffffffffffffffffffffffffffffffffffffffffffffffffffffffff82036103e8576103e761037c565b5b60018201905091905056fea2646970667358221220b75a59b456242cf7dd07a191cd626fe41d9d4a2c16f06dff087a04c3c3a1cef064736f6c63430008140033",
  "linkReferences": {},
  "deployedLinkReferences": {}
}